:020000040800F2
:1000000028080020950100089D0100089F010008B4
:10001000A1010008A3010008A501000800000000DC
:10002000000000000000000000000000A701000820
:10003000A901000800000000AB010008AD010008A4
:10004000AF010008AF010008AF010008AF010008D0
:10005000AF010008AF010008AF010008AF010008C0
:10006000AF010008AF010008AF010008AF010008B0
:10007000AF010008AF010008AF010008AF010008A0
:10008000AF010008AF010008AF010008AF01000890
:10009000AF010008AF010008AF010008AF01000880
:1000A000AF010008AF010008AF010008AF01000870
:1000B000AF010008B5050008AF010008AF01000856
:1000C000AF010008AF010008AF010008AF01000850
:1000D000AF010008AF01000859060008AF01000891
:1000E000AF010008AF010008AF01000800F002F8FE
:1000F00000F041F80AA090E8000C82448344AAF181
:100100000107DA4501D100F036F8AFF2090EBAE87E
:100110000F0013F0010F18BFFB1A43F0010318473B
:100120000410000024100000103A24BF78C878C1E1
:10013000FAD8520724BF30C830C144BF04680C60ED
:10014000704700000023002400250026103A28BF35
:1001500078C1FBD8520728BF30C148BF0B60704739
:10016000642900F07F80002070471FB500F0BAF8C6
:100170001FBD10B510BD00F03EF91146FFF7F5FFA9
:1001800000F06AFD00F05CF903B4FFF7F2FF03BC76
:1001900000F066F90948804709480047FEE7FEE796
:1001A000FEE7FEE7FEE7FEE7FEE7FEE7FEE7FEE727
:1001B00004480549054A064B7047000055050008EC
:1001C000ED00000828020020280800202804002054
:1001D000280400200FB41CB5074B06AA7B446946CF
:1001E0000090059800F0EFF80020694600F0FEF856
:1001F0001CBC5DF814FB00000D0200002DE9F0416D
:100200000E460446002020622046E168884730B34D
:10021000252805D0D4E901219047206A401CF2E747
:10022000E168204600278847050018D0A5F1410065
:10023000192802D820354FF4006732462946204657
:100240002760FFF78DFF40B1012804D0F61D26F08E
:1002500007060836D8E7361DD6E72846DAE7206ACB
:10026000BDE8F0812DE9F0410646002410687529AB
:10027000314616A510D0AFF30080002802DA4042C4
:1002800013A507E031688A0701D512A502E04907E6
:1002900004D511A5012401E0AFF3008000210A225A
:1002A00006F1240709E0B0FBF2FCB0FBF2F302FB1D
:1002B0001C00303078541846491C0028F3D12346DE
:1002C0002A463046BDE8F04100F01EB800000000AC
:1002D0002D0000002B000000200000007047704738
:1002E0007047000070B5064C7C44064D7D4403E029
:1002F000206820448047241DAC42F9D170BD000025
:10030000580E00005C0E00002DE9F0470D4699469E
:100310009246044600F124080168880604D5E06985
:1003200021F01001216000E00120A84201DD471BFF
:1003300000E00027A1697A1902EB0900081AA06100
:100340002078C00602D42046AFF30080002608E0E3
:10035000D4E901211AF806009047206A401C761C57
:1003600020624E45F4DB2078C0060AD52046AFF364
:10037000008006E0D4E9012130209047206A401C2B
:100380002062381EA7F10107F4DC07E0D4E901215F
:1003900018F805009047206A401C2062281EA5F12D
:1003A0000105F3DC2046AFF300802078000602D57B
:1003B0000220BDE8F0870120FBE7000001694A1C2C
:1003C00002610878704700B58FB0CDE90131002196
:1003D000059105497944CDE9031011466846FFF7B8
:1003E0000DFF0FB000BD0000E5FFFFFF0A6802F837
:1003F000010B0A607047754600F02CF8AE46050008
:100400006946534620F00700854618B020B5FFF72F
:10041000CFFEBDE820404FF000064FF000074FF040
:1004200000084FF0000B21F00701AC46ACE8C00912
:10043000ACE8C009ACE8C009ACE8C0098D4670471B
:1004400010B50446AFF300802046BDE81040FFF72A
:100450009BBE000000487047C801002070470000A4
:1004600001491820ABBEFEE72600020010B500F0DF
:1004700001F810BD0CB500200190009033480068D1
:1004800040F480303149086000BF3048006800F413
:10049000003000900198401C0190009818B9019814
:1004A000B0F5A06FF1D12948006800F4003010B118
:1004B0000120009001E0002000900098012843D125
:1004C0002348006840F01000214908600846006891
:1004D00020F0030008600846006840F00200086051
:1004E0001A4840681949486008464068486008460C
:1004F000406840F4806048600846406820F47C1002
:1005000048600846406840F4E810486008460068C3
:1005100040F08070086000BF0C48006800F0007078
:100520000028F9D00948406820F0030007494860D6
:100530000846406840F00200486000BF0348406839
:1005400000F00C000828F9D10CBD0000001002409A
:100550000020024010B51348006840F00100114926
:10056000086008464068104908400E49486008463F
:1005700000680E4908400B4908600846006820F4EE
:10058000802008600846406820F4FE0048604FF470
:100590001F008860FFF76AFF4FF0006004490860A1
:1005A00010BD0000001002400000FFF8FFFFF6FE43
:1005B00008ED00E010B51F4800881F4908604FF0A3
:1005C0008040808C1D4908601B4800681C490968F0
:1005D000401A19490860194800681A490968401A00
:1005E0001649086016480068134909680844144908
:1005F00008601448006811490968084411490860F6
:1006000001201149087000BF1048806800F40054B0
:100610000F480068A04204D00D4920460C6000F04D
:100620003DF800BF0B48008820F001000949088010
:1006300010BD00002408004010000020140000201D
:100640002400002028000020180000200010014095
:100650001C0000201004004010B50F48048804F06E
:10066000200028B10C49091D0988C8B200F02EF8F5
:1006700004F0800078B100F0FFF9041E03D00649B1
:10068000091D0C8007E004480C30008820F0800031
:1006900001490C31088010BD0044004068B109498F
:1006A000097881F00101074A117011B14FF4C86156
:1006B00000E00021044A116002E00021024A1160BA
:1006C00070470000080000200000002010B5202224
:1006D000254B1A700A2800D110BD202805D1234AC5
:1006E00012681278202A00D1F6E7204A1268521CBC
:1006F0001E4B1A6010700D2800D0EDE700221B4B36
:100700001B681A70184A521C184B1A6000210DE021
:10071000164A12681378154A1268521C134C22604C
:1007200001EB810203EB4202A2F130010F4A126891
:100730001278302A04DB0D4A12681278392AE7DD74
:100740000A4A12681278642A07D109B10A4601E000
:100750004FF4C862064B1A6000E000BF00BF024AB7
:10076000024B1A6000BFB7E7C80000200C00002051
:10077000040000200348006808B1012070470020F1
:10078000FCE700002C00002001460748006808B183
:1007900000207047044801600448008840F0800051
:1007A000024A10800120F4E72C0000200C44004095
:1007B000002801DD024600E000220D4B1A800028CF
:1007C00001DA424200E00022094B1B1F1A80002977
:1007D00001DD0A4600E00022054B1B1D1A8000299E
:1007E00001DA4A4200E00022014B08331A807047C8
:1007F0003804004002460848007808B900207047D5
:100800000648006810600648006808600020024B37
:1008100018700120F3E700001800002010000020ED
:100820001400002000BF20200149086000BF70476D
:10083000100801402DE9F84F07468846002400259E
:10084000002678480068142812DA77493868096861
:100850000844754908607549D8F8000009680844DB
:10086000724908606F480068401C6E490860BCE02F
:100870006C4800681428FAD16B4938680968084444
:10088000694908606949D8F800000968084467495F
:100890000860654800680968401A6549086065484D
:1008A00000681C3060490968441A62480068C0F159
:1008B0001C005E490968451A5D48006846425E486A
:1008C000006820445C4908605C48006828445B4933
:1008D00008605B48006830445949086034B1201E04
:1008E00001DB014600E041420A2902DD00205249B5
:1008F000086035B1281E01DB014600E041420A29AB
:1009000002DD00204D49086036B1301E01DB014692
:1009100000E041420A2902DD0020494908604648BA
:10092000006800F0A5FA009046480168009800F0C1
:10093000B7FA8246204600F09BFA009042480168D0
:10094000009800F0ADFA8346514600F013FA814654
:1009500000F072FA3D4908603848006800F088FAF3
:1009600000903B480168009800F09AFA82462846B9
:1009700000F07EFA009037480168009800F090FA85
:100980008346514600F0F6F9814600F055FA3249A7
:1009900008602B48006800F06BFA00902F4801684F
:1009A000009800F07DFA8246304600F061FA00902F
:1009B0002B480168009800F073FA8346514600F016
:1009C000D9F9814600F038FA1A49086025480068CC
:1009D000401C244908600120124908600020124987
:1009E00008601249086012490860184800683860B9
:1009F00019480068C8F800001A48006850280EDD41
:100A000000200D4908600D4908600D4908600F4934
:100A10000860114908600749086012490860BDE88C
:100A2000F88F000070000020580000205C000020BB
:100A3000600000206C0000204C00002050000020CE
:100A40005400002038000020340000206400002002
:100A5000400000203C0000206800002048000020EA
:100A6000440000207400002000BF202001490860DD
:100A700000BF7047140801400848006808B900200A
:100A8000704706480068017804480068401C034A23
:100A9000106009B9002010600846F1E72C00002022
:100AA00010B502463A48C06940F00700384BD8619B
:100AB0001846806940F00C0098613648006820F0C4
:100AC0007F4141F02A40334B18603348006820F0E2
:100AD000FF0141F0AA00304B186067202F4B1880AF
:100AE000DB0618811846008B40F4807018832B4871
:100AF0001030008840F48070284B103318804FF07D
:100B00008040008840F001004FF080431880234867
:100B10000838008840F00100204B083B188046F65A
:100B200068001F4B18801B1F188041F211101C4BCE
:100B30001B1D188003201A4B0C3318804AF6C7700F
:100B40001B1D188016481C38008840F00100144B0B
:100B50001C3B188012480C38008820F00100104B14
:100B60000C3B1880181F008840F001001B1F1880E4
:100B70001D20002809DB00F01F040123A3404409C5
:100B8000A40004F1E024C4F8003100BF104610BDF9
:100B90000010024000080140000C0140080800401D
:100BA0001C04004010B518491848806940F0040042
:100BB000164B98611648006820F4706242F4206079
:100BC000134B18601148C06940F400300F4BD861D6
:100BD00040F239100F4B18802C201B1D188018462E
:100BE000008840F4005018802620002809DB00F01F
:100BF0001F040123A3404409A40004F1E024C4F825
:100C0000003100BF00BF10BD3000002000100240C6
:100C1000000801400844004010B50B484FF4005252
:100C200002600A4A926942F01402084B9A61084A2B
:100C3000126822F4700141F40012054B1A6000BFE3
:100C40000448FFF72DFF10BD1C00002000100240DB
:100C500000080140200000201FB576E002A903A88B
:100C6000FFF7C8FD002849D03848006858B1DDE9D1
:100C7000020100EB0110C1B234480068401E334A43
:100C80001060334A115402A903A8FFF7D3FD4AF6B6
:100C9000C7710398884201DD084603904AF6C77180
:100CA0000298884201DD084602902848006808B191
:100CB000039800E0002003902448006808B10298DF
:100CC00000E000200290DDE90210FFF771FD1F48EF
:100CD000006858B11F491D4A0398126821F8120094
:100CE0001D491A4A0298126821F812001748006834
:100CF00010B1FFF797FD01E0FFF7B6FE1748006857
:100D000010B3FFF737FDF8B914480068401E1349C7
:100D10000860104931F810500F481049096830F840
:100D200011600B480D490968445C04F00F07241159
:100D30003B4622460AA10E48CDE90056FFF74AFA83
:100D40000B48FFF721FD00BF00BF87E70000002030
:100D50000010002040160020C022002004000020C7
:100D600025642025642025642025640D0A000000E8
:100D70007800002090EA010F48BF81F0004100F1A7
:100D80006281421A3CBF801A89184FEAD0524FF054
:100D90007F4C1CEA410FA2EBD15318BF9CEA026FB3
:100DA00000F03B804FF0004C4CEA00204CEA01215F
:100DB00021FA03FC10EB0C0C1ED202F1FF325FEAA9
:100DC0001C2040EBC25038BF70471CF07F0F4FEA29
:100DD000400C18BFBCF17F4F38BF7047C3F12003F0
:100DE000994008BF20F00100BCF17F4F38BF704729
:100DF000A0F1C04000F01BB94FEA3C00000A40EBF4
:100E0000C25028BF1CF0FF0F4FEA400CE6D018BFBD
:100E1000BCF17F4F38BF7047EAE79CEA026F05D00C
:100E200010EA5C0F08BF00F00040704710B500F0FA
:100E3000B8F800BF64FBBE3E41000B0ED3F19E022A
:100E400008D950F400034FEA032323FA02F048BF05
:100E50004042704710B500F0A4F800BF49922480CA
:100E6000002070476FF0004282EA200070470000C7
:100E700010F0004148BF4042B0FA80F310FA03F28C
:100E8000C3F19D030BD051EAC35101EB122053066D
:100E900038BF704700F1010008BF20F00100704723
:100EA0004FF47F0C1CEAD0121EBF1CEAD11392EA49
:100EB0000C0F93EA0C0F00F0478090EA010F48BF37
:100EC00042F480724FF0004C4CEA00204CEA0121C1
:100ED00002EB0302A0FB0113A2F50002002918BFD8
:100EE00043F001035B0028BF4FEA330342EB224289
:100EF0005FEA132C4CEBC2502EBFBCEB436FB2F534
:100F00007C0F70474FEA036CBCF1004F08BF20F024
:100F10000100B2F57C0F38BF70470BD582F0FF029D
:100F200012F5803FC8BF704700F1C040D8BF00F045
:100F30000040704700F5000C5FEA4C0C48BF70475A
:100F4000B0F1C04000F073B890EA010F0CEAD11381
:100F500048BF42F48072624538BF634504D280EADC
:100F6000010000F00040704710B500F01AF800BF13
:100F70008900013E00F007B800F009B85FEA410CB3
:100F80005FEA1C6C08D080EA010000F050B85FEA0C
:100F9000400C5FEA1C6CF6D14FF00040A0F58000D9
:100FA00070470EF1020E2EF0030E5EF8044B244241
:100FB00004D44FEA4102B2F17F4F11D84FEA400307
:100FC000B3F17F4F0CD80ED14FEAD07CB2F17F4FF6
:100FD0000CEB4C0C0CF1020C08BF4CEBD17C04E088
:100FE0004FF0080C01E04FEAD17C0CEB4C0324FAE3
:100FF00003F404F00704B4F1040C06D20EEB840CE5
:10100000BDE810404CF0010C6047DFE80CF0070829
:1010100002024FF00040A0F5800010BD08464200DB
:1010200018BFD2F1807288BF00F0004010BDFF21D0
:1010300041EAD050C005704790EA010F48BF81F0E7
:1010400000413FF59EAE421A04D882F00042A0EB68
:10105000020011444FEAD0524FF07F4C1CEA410F7E
:10106000A2EBD15318BF9CEA026F4AD04FF0004C5C
:101070004CEA00204CEA012121FA03FCB0EB0C0CF5
:101080000FD412F0FE0F36D05FEA4C001DD50012CF
:1010900040EBC25038BF70471CF03F0F18BF70477D
:1010A0000BE0A2F101025FEA1C2040EBC25038BF06
:1010B00070471CF07F0F18BF7047C3F120039940A1
:1010C00014BF401E20F00100704780084FEA122331
:1010D00008BF7047B0FA80FCA2EB0C02CCF1280CE0
:1010E00060FA0CF093EA122F04BF00EBC250704775
:1010F0004FEAC3707047130A5FEADC1008BF7047FD
:10110000F6E79CEA026F04D010EA5C0F08BF0020EB
:10111000704710B5FFF745FF40DFF63E81F0004015
:10112000704700004C11000800000020780000000B
:1011300028010008C411000878000020B007000052
:1011400044010008D5FAFFFF5DFAFFFF0000000030
:101150000000000000000000C800002000000000A7
:10116000000000000000000000000000000000007F
:10117000000000000000000000000000000000006F
:1011800014AE0C4400800C4414AE0C4400800C449B
:10119000CE19013F7CF2003F00000000000000007B
:1011A000000000000000000000000000000000003F
:1011B000000000000000000000000000010000002E
:0411C000010000002A
:04000005080000ED02
:00000001FF
